:020000040000fa
:080000000001040000000000f3
:020000040000fa
:0400080026020000cc
:020000040000fa
:04000c0026020000c8
:020000040000fa
:0400100026020000c4
:020000040000fa
:0400140026020000c0
:020000040000fa
:0400180026020000bc
:020000040000fa
:04001c0026020000b8
:020000040000fa
:0400200026020000b4
:020000040000fa
:0400240026020000b0
:020000040000fa
:0400280026020000ac
:020000040000fa
:04002c0026020000a8
:020000040000fa
:0400300026020000a4
:020000040000fa
:0400340004020000c2
:020000040000fa
:04003800260200009c
:020000040000fa
:04003c002602000098
:020000040000fa
:040040002602000094
:020000040000fa
:040044002602000090
:020000040000fa
:04004800260200008c
:020000040000fa
:04004c002602000088
:020000040000fa
:040050002602000084
:020000040000fa
:040054002602000080
:020000040000fa
:04005800260200007c
:020000040000fa
:04005c002602000078
:020000040000fa
:040060002602000074
:020000040000fa
:040064002602000070
:020000040000fa
:04006800260200006c
:020000040000fa
:04006c002602000068
:020000040000fa
:040070002602000064
:020000040000fa
:040074002602000060
:020000040000fa
:04007800260200005c
:020000040000fa
:04007c002602000058
:020000040000fa
:040080002602000054
:020000040000fa
:040084002602000050
:020000040000fa
:04008800260200004c
:020000040000fa
:04008c002602000048
:020000040000fa
:040090002602000044
:020000040000fa
:040094002602000040
:020000040000fa
:04009800260200003c
:020000040000fa
:04009c002602000038
:020000040000fa
:0400a0002602000034
:020000040000fa
:0400a4002602000030
:020000040000fa
:0400a800260200002c
:020000040000fa
:0400ac002602000028
:020000040000fa
:0400b0002602000024
:020000040000fa
:0400b4002602000020
:020000040000fa
:0400b800260200001c
:020000040000fa
:0400bc002602000018
:020000040000fa
:0400c0002602000014
:020000040000fa
:0400c4002602000010
:020000040000fa
:0400c800260200000c
:020000040000fa
:0400cc002602000008
:020000040000fa
:0400d0002602000004
:020000040000fa
:0400d4002602000000
:020000040000fa
:0400d80026020000fc
:020000040000fa
:0400dc0026020000f8
:020000040000fa
:0400e00026020000f4
:020000040000fa
:0400e40026020000f0
:020000040000fa
:0400e80026020000ec
:020000040000fa
:0400ec0026020000e8
:020000040000fa
:0400f00026020000e4
:020000040000fa
:0400f40026020000e0
:020000040000fa
:0400f80026020000dc
:020000040000fa
:0400fc0026020000d8
:020000040000fa
:0401000026020000d3
:020000040000fa
:0401040026020000cf
:020000040000fa
:0401080026020000cb
:020000040000fa
:04010c0026020000c7
:020000040000fa
:0401100026020000c3
:020000040000fa
:0401140026020000bf
:020000040000fa
:0401180026020000bb
:020000040000fa
:04011c0026020000b7
:020000040000fa
:0401200026020000b3
:020000040000fa
:0401240026020000af
:020000040000fa
:0401280026020000ab
:020000040000fa
:04012c0026020000a7
:020000040000fa
:0401300026020000a3
:020000040000fa
:04013400260200009f
:020000040000fa
:04013800260200009b
:020000040000fa
:04013c002602000097
:020000040000fa
:040140002602000093
:020000040000fa
:04014400260200008f
:020000040000fa
:04014800260200008b
:020000040000fa
:04014c002602000087
:020000040000fa
:040150002602000083
:020000040000fa
:04015400260200007f
:020000040000fa
:04015800260200007b
:020000040000fa
:04015c002602000077
:020000040000fa
:040160002602000073
:020000040000fa
:04016400260200006f
:020000040000fa
:04016800260200006b
:020000040000fa
:04016c002602000067
:020000040000fa
:040170002602000063
:020000040000fa
:04017400260200005f
:020000040000fa
:04017800260200005b
:020000040000fa
:04017c002602000057
:020000040000fa
:040180002602000053
:020000040000fa
:04018400260200004f
:020000040000fa
:04018800260200004b
:020000040000fa
:04018c002602000047
:020000040000fa
:040190002602000043
:020000040000fa
:04019400260200003f
:020000040000fa
:04019800260200003b
:020000040000fa
:04019c002602000037
:020000040000fa
:0401a0002602000033
:020000040000fa
:0401a400260200002f
:020000040000fa
:0401a800260200002b
:020000040000fa
:0401ac002602000027
:020000040000fa
:0401b0002602000023
:020000040000fa
:0401b400260200001f
:020000040000fa
:0401b800260200001b
:020000040000fa
:0401bc002602000017
:020000040000fa
:0401c0002602000013
:020000040000fa
:0401c400260200000f
:020000040000fa
:0401c800260200000b
:020000040000fa
:0401cc002602000007
:020000040000fa
:0401d0002602000003
:020000040000fa
:0401d40026020000ff
:020000040000fa
:0401d80026020000fb
:020000040000fa
:0401dc0026020000f7
:020000040000fa
:0401e00026020000f3
:020000040000fa
:0401e40026020000ef
:020000040000fa
:0401e80026020000eb
:020000040000fa
:0401ec0026020000e7
:020000040000fa
:0401f00026020000e3
:020000040000fa
:0401f40026020000df
:020000040000fa
:0401f80026020000db
:020000040000fa
:0401fc0026020000d7
:020000040000fa
:100200002f8020000e7f22000e01880000000000d9
:10021000000020000000e000020032000001200089
:1002200020028800140007008a0007000000e00098
:1002300003003a0040402000010020000200370087
:100240000000200001002000810f7000010032003a
:1002500014000700000020000000e000020032004f
:100260000000020000000000020302000000000085
:100270000040da000000fe004440a90020002000f9
:100280000000e00003003200100020009001880010
:100290004440a800000006008a1f78008b1f7800e9
:1002a00000000600a1028800800478000000eb0036
:1002b0001f003700e284440054a0b4009905ba003e
:1002c000e284440054a0b4009906ba00e2844400d9
:1002d00054a0b4000006eb00476fde00fd07b2003b
:1002e000ae018800636ce10003003a00eaff0700fa
:1002f0000000eb000e003700606ce10008003a00df
:10030000004deb000a05e800020039003420ec0043
:100310000af0a0008b05e900f9ff3e000400370059
:100320006168e100010032000086eb000b0007006d
:1003300019c7ba001905ba000e04e00003003a001c
:100340000a00e000dbff3a0000000600fe07b200f2
:10035000ae0288008a047800f5ff37000cd0a300b5
:10036000e20f4d001c00390089027800354dba00bb
:100370000a05e800020039003420ec000af0a00071
:100380008b05e9000f003200254dba000a05e80090
:10039000020039003420ec000af0a0008b05e900cf
:1003a000080032000c00e0000600320015cdba0053
:1003b0000a05e800020039003420ec000af0a00031
:1003c0008b05e9008984e80054a0b4000b00e0002c
:1003d000e2ff3a00000006009902ba00055d7800cd
:1003e0008b05e900f7ff3200c82ade00055d7800c2
:1003f0008b05e900f3ff32000c00e000f1ff320052
:1004000019ddba00eeff3700801f78003200f800d7
:100410003400f80010002000a00188001000200027
:10042000900188000000fa008860a90000c8bf00a1
:100430000040e80000e8b7000080fa003400f9004e
:100440003200f9004f007800004006000040da005a
:080450000000fe0000000500a1
:020000040000fa
:100458000400fa008e80e800804878000e80e800ea
:10046800104f78001e80fb00e0208800c12080002b
:1004780000082000008060000000e000fbff320060
:10048800c02080004c00de00614060000080fa005f
:10049800000006000200fa0083e0a90060042000c2
:1004a80000088800700520000008880000c1a90025
:1004b800e13d800000fc2f00008060007001b30067
:1004c800e03d8800513f800000f82f000080600068
:1004d800a000b300503f8800613f8000f00f280063
:1004e8008080600000b0200001007000603f88003c
:1004f80060042000000888007005200000088800bb
:1005080000c1a80083e0a8004034800000c0a1001a
:10051800403488004034800000f0a1004034880056
:10052800c03680000090a100c0368800a03380004b
:100538000040a100a0338800a03380000070a10013
:10054800a0338800e03480000010a000e034880068
:10055800e03480000000a000e0348800a033800070
:1005680000e0a100a0338800c033800000e0a100b3
:10057800c0338800e03480000050a100e0348800d7
:10058800203680000060a00020368800803580007a
:100598000040a10080358800e03480000020a000e1
:1005a800e0348800e03480000030a100e0348800a6
:1005b800e03480000040a100e034880011e4a90084
:1005c800e0208000004f7800f0208000004f780085
:1005d8001004a9002024ef0018c4a90010a4a80042
:1005e80081208000f03f2f0000806000802088007c
:1005f80011e4a8000080fa00000006000200fa00da
:10060800630007000000eb00000f78000180200065
:100618009140780040c6b30080cf500002003a00f5
:100628001e0fe8000068ef001e007800e20f50007f
:1006380016003200e20f500005003c000000e00008
:100648000a003200e10f50000c0032001f00370092
:10065800e40f500015003200e40f50000f00350081
:10066800e50f50001500320018003700e036800012
:100678000090a000e03688001a003700c0338000e0
:100688000040a000c033880016003700c033800047
:100698000070a000c033880012003700e0368000e8
:1006a8000090a100e03688000e003700c0338000bb
:1006b8000040a100c03388000a003700c033800022
:1006c8000070a100c033880006003700e0368000c3
:1006d8000090a000e03688000000eb00000f7800d2
:1006e80000000000c9ff37000000fa000068ef00b2
:1006f8009421ef00a00c80000040a000a00c88000e
:10070800f0e12400900c88008860a9004105800071
:10071800f0ff28000080600000e0a000400588008d
:100728009860a80095e1a8000080fa000000060083
:100738000200fa00000f7800a021ef00010d8000f0
:100748000003200001007000000d88009e00780062
:10075800e00320000088b900000078000000e900ec
:10076800e00c880088e0a9009621ef00a1e1a8002c
:1007780000000000b10c8000e00c8000808f500069
:10078800fcff3900a1e1a9000080fa000000060082
:100798000000fa0011088000f0f32f0000806000cc
:1007a8001008880010a1a90011088000f0f32f009c
:1007b8000080600010088800010037000000000079
:1007c8000108800000022000008060000000e000b6
:1007d800faff320083e0a800c3ff07002dff0700df
:1007e8000080fa00000006000200fa00004f7800be
:1007f8001e80fb00ceff07000080fa000000060004
:020000040000fa
:100808000008000002000000800000000000000056
:020000040000fa
:020000040002f8
:04be0000ffffff0041
:020000040000fa
:020000040002f8
:04be2000ffffff0021
:020000040000fa
:020000040002f8
:04be300009ffff0007
:020000040000fa
:020000040002f8
:04be38008bffff007d
:020000040000fa
:020000040002f8
:04be40009fffff0061
:020000040000fa
:020000040002f8
:04be4800ffffff00f9
:020000040000fa
:020000040002f8
:04be5000dfffff0011
:020000040000fa
:020000040002f8
:04be5800ffffff00e9
:020000040000fa
:020000040002f8
:04be6000ffffff00e1
:020000040000fa
:020000040002f8
:04be6800ffffff00d9
:020000040000fa
:020000040002f8
:04be7000ffffff00d1
:020000040000fa
:020000040002f8
:04be7800ffffff00c9
:020000040000fa
:020000040002f8
:04be8000ffffff00c1
:00000001FF
