:020000040000fa
:080000000002040000000000f2
:020000040000fa
:04000800fe020000f4
:020000040000fa
:04000c00fe020000f0
:020000040000fa
:04001000fe020000ec
:020000040000fa
:04001400fe020000e8
:020000040000fa
:04001800fe020000e4
:020000040000fa
:04001c00fe020000e0
:020000040000fa
:04002000fe020000dc
:020000040000fa
:04002400fe020000d8
:020000040000fa
:04002800fe020000d4
:020000040000fa
:04002c00fe020000d0
:020000040000fa
:04003000fe020000cc
:020000040000fa
:04003400e4020000e2
:020000040000fa
:04003800fe020000c4
:020000040000fa
:04003c00fe020000c0
:020000040000fa
:04004000fe020000bc
:020000040000fa
:04004400fe020000b8
:020000040000fa
:04004800fe020000b4
:020000040000fa
:04004c00fe020000b0
:020000040000fa
:04005000fe020000ac
:020000040000fa
:04005400fe020000a8
:020000040000fa
:04005800fe020000a4
:020000040000fa
:04005c00fe020000a0
:020000040000fa
:04006000fe0200009c
:020000040000fa
:04006400fe02000098
:020000040000fa
:04006800fe02000094
:020000040000fa
:04006c00fe02000090
:020000040000fa
:04007000fe0200008c
:020000040000fa
:04007400fe02000088
:020000040000fa
:04007800fe02000084
:020000040000fa
:04007c00fe02000080
:020000040000fa
:04008000fe0200007c
:020000040000fa
:04008400fe02000078
:020000040000fa
:04008800fe02000074
:020000040000fa
:04008c00fe02000070
:020000040000fa
:04009000fe0200006c
:020000040000fa
:04009400fe02000068
:020000040000fa
:04009800fe02000064
:020000040000fa
:04009c00fe02000060
:020000040000fa
:0400a000fe0200005c
:020000040000fa
:0400a400fe02000058
:020000040000fa
:0400a800fe02000054
:020000040000fa
:0400ac00fe02000050
:020000040000fa
:0400b000fe0200004c
:020000040000fa
:0400b400fe02000048
:020000040000fa
:0400b800fe02000044
:020000040000fa
:0400bc00fe02000040
:020000040000fa
:0400c000fe0200003c
:020000040000fa
:0400c400fe02000038
:020000040000fa
:0400c800fe02000034
:020000040000fa
:0400cc00fe02000030
:020000040000fa
:0400d000fe0200002c
:020000040000fa
:0400d400fe02000028
:020000040000fa
:0400d800fe02000024
:020000040000fa
:0400dc00fe02000020
:020000040000fa
:0400e000fe0200001c
:020000040000fa
:0400e400fe02000018
:020000040000fa
:0400e800fe02000014
:020000040000fa
:0400ec00fe02000010
:020000040000fa
:0400f000fe0200000c
:020000040000fa
:0400f400fe02000008
:020000040000fa
:0400f800fe02000004
:020000040000fa
:0400fc00fe02000000
:020000040000fa
:04010000fe020000fb
:020000040000fa
:04010400fe020000f7
:020000040000fa
:04010800fe020000f3
:020000040000fa
:04010c00fe020000ef
:020000040000fa
:04011000fe020000eb
:020000040000fa
:04011400fe020000e7
:020000040000fa
:04011800fe020000e3
:020000040000fa
:04011c00fe020000df
:020000040000fa
:04012000fe020000db
:020000040000fa
:04012400fe020000d7
:020000040000fa
:04012800fe020000d3
:020000040000fa
:04012c00fe020000cf
:020000040000fa
:04013000fe020000cb
:020000040000fa
:04013400fe020000c7
:020000040000fa
:04013800fe020000c3
:020000040000fa
:04013c00fe020000bf
:020000040000fa
:04014000fe020000bb
:020000040000fa
:04014400fe020000b7
:020000040000fa
:04014800fe020000b3
:020000040000fa
:04014c00fe020000af
:020000040000fa
:04015000fe020000ab
:020000040000fa
:04015400fe020000a7
:020000040000fa
:04015800fe020000a3
:020000040000fa
:04015c00fe0200009f
:020000040000fa
:04016000fe0200009b
:020000040000fa
:04016400fe02000097
:020000040000fa
:04016800fe02000093
:020000040000fa
:04016c00fe0200008f
:020000040000fa
:04017000fe0200008b
:020000040000fa
:04017400fe02000087
:020000040000fa
:04017800fe02000083
:020000040000fa
:04017c00fe0200007f
:020000040000fa
:04018000fe0200007b
:020000040000fa
:04018400fe02000077
:020000040000fa
:04018800fe02000073
:020000040000fa
:04018c00fe0200006f
:020000040000fa
:04019000fe0200006b
:020000040000fa
:04019400fe02000067
:020000040000fa
:04019800fe02000063
:020000040000fa
:04019c00fe0200005f
:020000040000fa
:04020800fe020000f2
:020000040000fa
:04020c00fe020000ee
:020000040000fa
:04021000fe020000ea
:020000040000fa
:04021400fe020000e6
:020000040000fa
:04021800fe020000e2
:020000040000fa
:04021c00fe020000de
:020000040000fa
:04022000fe020000da
:020000040000fa
:04022400fe020000d6
:020000040000fa
:04022800fe020000d2
:020000040000fa
:04022c00fe020000ce
:020000040000fa
:04023000fe020000ca
:020000040000fa
:04023400e4020000e0
:020000040000fa
:04023800fe020000c2
:020000040000fa
:04023c00fe020000be
:020000040000fa
:04024000fe020000ba
:020000040000fa
:04024400fe020000b6
:020000040000fa
:04024800fe020000b2
:020000040000fa
:04024c00fe020000ae
:020000040000fa
:04025000fe020000aa
:020000040000fa
:04025400fe020000a6
:020000040000fa
:04025800fe020000a2
:020000040000fa
:04025c00fe0200009e
:020000040000fa
:04026000fe0200009a
:020000040000fa
:04026400fe02000096
:020000040000fa
:04026800fe02000092
:020000040000fa
:04026c00fe0200008e
:020000040000fa
:04027000fe0200008a
:020000040000fa
:04027400fe02000086
:020000040000fa
:04027800fe02000082
:020000040000fa
:04027c00fe0200007e
:020000040000fa
:04028000fe0200007a
:020000040000fa
:04028400fe02000076
:020000040000fa
:04028800fe02000072
:020000040000fa
:04028c00fe0200006e
:020000040000fa
:04029000fe0200006a
:020000040000fa
:04029400fe02000066
:020000040000fa
:04029800fe02000062
:020000040000fa
:04029c00fe0200005e
:020000040000fa
:0402a000fe0200005a
:020000040000fa
:0402a400fe02000056
:020000040000fa
:0402a800fe02000052
:020000040000fa
:0402ac00fe0200004e
:020000040000fa
:0402b000fe0200004a
:020000040000fa
:0402b400fe02000046
:020000040000fa
:0402b800fe02000042
:020000040000fa
:0402bc00fe0200003e
:020000040000fa
:0402c000fe0200003a
:020000040000fa
:0402c400fe02000036
:020000040000fa
:0402c800fe02000032
:020000040000fa
:0402cc00fe0200002e
:020000040000fa
:0402d000fe0200002a
:020000040000fa
:0402d400fe02000026
:020000040000fa
:0402d800fe02000022
:020000040000fa
:0402dc00fe0200001e
:020000040000fa
:0402e000fe0200001a
:020000040000fa
:0402e400fe02000016
:020000040000fa
:0402e800fe02000012
:020000040000fa
:0402ec00fe0200000e
:020000040000fa
:0402f000fe0200000a
:020000040000fa
:0402f400fe02000006
:020000040000fa
:0402f800fe02000002
:020000040000fa
:0402fc00fe020000fe
:020000040000fa
:04030000fe020000f9
:020000040000fa
:04030400fe020000f5
:020000040000fa
:04030800fe020000f1
:020000040000fa
:04030c00fe020000ed
:020000040000fa
:04031000fe020000e9
:020000040000fa
:04031400fe020000e5
:020000040000fa
:04031800fe020000e1
:020000040000fa
:04031c00fe020000dd
:020000040000fa
:04032000fe020000d9
:020000040000fa
:04032400fe020000d5
:020000040000fa
:04032800fe020000d1
:020000040000fa
:04032c00fe020000cd
:020000040000fa
:04033000fe020000c9
:020000040000fa
:04033400fe020000c5
:020000040000fa
:04033800fe020000c1
:020000040000fa
:04033c00fe020000bd
:020000040000fa
:04034000fe020000b9
:020000040000fa
:04034400fe020000b5
:020000040000fa
:04034800fe020000b1
:020000040000fa
:04034c00fe020000ad
:020000040000fa
:04035000fe020000a9
:020000040000fa
:04035400fe020000a5
:020000040000fa
:04035800fe020000a1
:020000040000fa
:04035c00fe0200009d
:020000040000fa
:04036000fe02000099
:020000040000fa
:04036400fe02000095
:020000040000fa
:04036800fe02000091
:020000040000fa
:04036c00fe0200008d
:020000040000fa
:04037000fe02000089
:020000040000fa
:04037400fe02000085
:020000040000fa
:04037800fe02000081
:020000040000fa
:04037c00fe0200007d
:020000040000fa
:04038000fe02000079
:020000040000fa
:04038400fe02000075
:020000040000fa
:04038800fe02000071
:020000040000fa
:04038c00fe0200006d
:020000040000fa
:04039000fe02000069
:020000040000fa
:04039400fe02000065
:020000040000fa
:04039800fe02000061
:020000040000fa
:04039c00fe0200005d
:020000040000fa
:100400004fc020000e7f24000e0188000000000075
:10041000000020000000e000020032000001200087
:100420002002880014000700760007000000e000aa
:1004300003003a00400a22000100200002003700b9
:100440000000200001002000810f70000100320038
:1004500014000700000020000000e000020032004d
:1004600000000200000000009820020000000000d0
:100470000040da000000fe004440a9008001200096
:100480000000e0000300320000002000a00188000e
:100490004440a800000006008a1f78008b1f7800e7
:1004a0000000060091018800800478000000eb0045
:1004b0001a003700e284440032a0b4009905ba0063
:1004c000e284440032a0b4009906ba00e2844400f9
:1004d00032a0b4000006eb00476fde00fd07b2005b
:1004e000636ce10003003a00ebff07000000eb0043
:1004f0000a003700606ce10004003a00005deb0088
:100500008b05e900fdff3e00040037006168e10053
:10051000010032000086eb000b00070019c7ba008b
:100520001905ba000e04e00003003a000a00e000da
:10053000e0ff3a0000000600fe07b2009e018800be
:100540008a047800f5ff3700395dba008b05e900b1
:100550000c003200295dba008b05e900080032006a
:100560000c00e00003003a00e284440032a0b40032
:10057000f5ff370019ddba008b05e900faff3a00f4
:100580008904e800e184440032a0b40000000600c1
:100590007619040000000000980804000000000024
:1005a0006a0a04000000000082110400000000003c
:1005b000f8110400000000003420040000000000d6
:1005c000fa1f040000000000801f78003400f800cb
:1005d00000002000a00188000000fa008460a9004b
:1005e0000ac8bf000040e8000ae8b7000080fa002f
:1005f0003400f9004f007800004006000040da00a7
:100600000000fe0000000500889fbe008a9fbe001b
:1006100030044200b0844a0030054b0090854b0006
:100620006000b1000898be000a90be000440e100de
:1006300005c8e10006d0e10007d8e1000200310062
:10064000680040001008e8004f05be004f04be00df
:1006500000000600889fbe008a9fbe003004be00d6
:100660002005be000418540005985c0006185d00c3
:1006700007985d00110020000440e10005c8e1007a
:1006800006d0e10007d8e100010039008000eb004e
:10069000108810004f05be004f04be000000060089
:1006a000f4874700889fbe008a9fbe008c9fbe00d3
:1006b0008e1f7800d0b79f00e1b79f00f2b79f0070
:1006c00083bf9f000605be000404be00cfae9700a6
:1006d0000000eb00c0b79f00b0b79f00a0b79f001d
:1006e00090b79f0080b79f00000678004fb097003a
:1006f000000140000000e00006003d003c00070053
:100700000f074700450007000f004000beff07002d
:1007100005003700360007000f0747003f000700bd
:100720000f004000cbff07004fb797000e00e0001e
:100730000c0035005fb29700efb297007fb39700cf
:100740008fbb970010002000010020006011b8004e
:1007500000027200818272000203730083837300bf
:100760001c0007000c06e80001042000810f560061
:10077000deff3a000e00e00005003d000802be006a
:100780000a03be0000fe2f000f0040009eff07007e
:100790000d00e00005003a000fb297009fb29700ed
:1007a0002fb39700bfb397000a0007005fb0970010
:1007b000efb097007fb197008fb997004f0778008f
:1007c0004f06be004f05be004f04be004f01b100f2
:1007d00000000600010007000000060094b79f001b
:1007e000a5b79f00b6b79f00c7b79f0000000600df
:1007f0009fb097004f08de0002017000a2b79f0073
:100800000fb097004f01de00818040008100710031
:1008100091b79f000efe2f0000000600de0078005a
:100820004f09de00000040000000710080b79f000b
:100830006fa897004f01de0081804000010f71001a
:100840000e0007004f3ade00000040000400700078
:10085000e0af9f00090007000402420085824a00c1
:1008600006034b0087834b00dcff07000802be0035
:100870000a03be0000fe2f00000006001fb2970012
:10088000afb297003fb39700cfb3970000000600c8
:10089000881f780018002000881f780080ff07005c
:1008a0008f87e9004f04780000000600801feb00ee
:1008b0007bff07008f87e90000000600889fbe00cd
:1008c0008a9fbe00e00f5000e08f5800e00f5900f3
:1008d000e08f59000c003d006044b8006055b8003e
:1008e0000000540081805c0002015d0083815d0096
:1008f000180020001500070008003d001800070040
:100900000004eb00050037000004eb000f000700b7
:1009100002003d001200070018002000dcff070065
:100920000800e000060032006022b8006033b80022
:100930000000520081805a0002015b0083815b004d
:100940004f05be004f04be0000000600e00f52003d
:10095000e08f5a00e00f5b00e08f5b0000000600b4
:100960006044b8006055b8000402540085825c0001
:1009700006035d0087835d0000000600889fbe00bf
:100980008a9fbe008c1f7800e00f5000e08f580057
:10099000e00f5900e08f59000d003d006044b800a1
:1009a0006055b8000000540081805c0002015d00c9
:1009b00083815d001c0020000820e10009a8e100ff
:1009c0000ab0e1000bb8e1000d003d00080037005f
:1009d0000006eb00e00f5200e08f5a00e00f5b00d2
:1009e000e08f5b0006003d006044b8006055b80031
:1009f0000402540085825c0006035d0087835d006d
:100a0000aaff07000c00e000060032006022b800d8
:100a10006033b8000000520081805a0002015b0080
:100a200083815b004f0678004f05be004f04be0077
:100a300000000600889fbe008a9fbe008c1f7800c1
:100a40000006eb00e00f5000e08f5800e00f590067
:100a5000e08f590007003d006044b8006055b800c1
:100a60000000540081805c0002015d0083815d0014
:100a70001c002000e00f5200e08f5a00e00f5b00e6
:100a8000e08f5b0007003d006044b8006055b8008f
:100a90000402540085825c0006035d0087835d00cc
:100aa0000c00a2000c0007000c00e0000600320061
:100ab0006022b8006033b8000000520081805a0004
:100ac00002015b0083815b004f0678004f05be008a
:100ad0004f04be0000000600889fbe008a9fbe0033
:100ae0008c9fbe000404b8000506b80089044600c7
:100af00060854e000606b8000a054600e0854e00f7
:100b00000706b8008b054600040eb80089044600ad
:100b10000a854e00e0854d00050eb8000a05460026
:100b20008b854e00060eb8008b0546000416b800f3
:100b30000a0546008b854e000516b8008b05460059
:100b4000041eb8008b0546000800be000a01be0066
:100b50004f06be004f05be004f04be000000060059
:100b60008001780002003700b15978000201e900e5
:100b70000200e000fcff3a0000000600889fbe0073
:100b80008a9fbe00800478000200e0005a00320014
:100b900001407800814c780082814400f1f99f0087
:100ba000e20f51005400360091449800a14498008f
:100bb000e1f99f00d1f99f00e60f51004e00360089
:100bc000b1449800c1f99f00e80f51004a00360077
:100bd0000905ea00630565000a8444000a0551001e
:100be000c1ff2f00010565000080fb008000eb00c5
:100bf000121020001310200054000700008cbe00cb
:100c00000a01440060b99f0071b99f00e80f5500c8
:100c10003900360020049800310498004004980000
:100c20005104980020b99f0031b99f0040b99f003e
:100c300051b99f00f80f55002f003600600498004e
:100c400071049800000c9800110c9800200c98007a
:100c5000310c9800400c9800510c980020b19f0076
:100c600031b19f0040b19f0051b19f0060b19f0022
:100c700071b19f0000b99f0011b99f006401640029
:100c80007801410002044400020555006011b800db
:100c90000203be000002be000403be006022b800d2
:100ca0000000720081807200020173008381730072
:100cb0000f00370008027800009abe00029abe00ba
:100cc000009abe000292be00000c9800110c980021
:100cd000220c9800330c9800400c9800510c98009e
:100ce000620c9800730c98000a02b1000802b00070
:100cf000ff0f5500efff3e00090078004f05be00d2
:100d00004f04be00000006000000e9008000eb0078
:100d1000006088001160880000000600d2f2270001
:100d200053c92400006080001160800007000700a4
:100d300061014000e0814800026088001360880083
:100d40004118de000100200000000600020ab90080
:100d5000001bb9000200b80081004200810043007e
:040d60000000060089
:020000040000fa
:100d6400486500006c6c00006f200000576f0000a5
:100d7400726c000064210000000000000308000001
:100d84001a40000080be0000e6f70000fc000000ee
:020000040000fa
:100d94000200fa00000f78001e0078000000e8004e
:100da400904078001e80e800004178001e00780022
:100db4002008b00010007800004078000040510086
:100dc40000c040000080fa00000006000200fa00a3
:100dd4000040eb00004f7800080037001e80fb0045
:100de4006600b9008000780040b520000080400013
:100df4008040eb00014878001e4fe8001e40780058
:100e0400e94f5000f5ff36004006200001002000a5
:100e1400905c8800a15c88000000eb00b05c880056
:100e240080892000c05c8800a1a620000040eb005f
:100e3400190c07000080fa00000006000400fa0004
:100e44008e80e800800878000e80e80010007800aa
:100e5400100078000000e8009040780080c8b300db
:100e640080cf50003e003a000e80e8001000780069
:100e7400100078009040780010c6b30080cf500076
:100e8400070032000e80e80010007800100078009f
:100e94009040780010c4b30080cf500032003a0074
:100ea4000e80e800100078000080e8001040780010
:100eb400ef4f50002e003600b00a0700000f7800f4
:100ec4001e0078000000e0002b0032009e00780035
:100ed40000c2b300804878000e80e800100078005b
:100ee4000080e800904078001e0078000000e800d0
:100ef400014878000e80e80010007800630040008c
:100f0400904078001e0078004008b0000148780046
:100f14000e80e800100078006400400090407800e3
:100f24001e0078005008b000014878000e80e800e8
:100f3400100078000080e800104078008080fb00fa
:100f44000e80e80010007800900178001e80e80010
:100f5400010178008300780000ff070007003700d4
:100f64000000000005003700000000000300370007
:100f74000000000001003700000000000080fa00bb
:100f8400000006000600fa00e4004700800878002c
:100f94007a0a0700000f78001e0078000000e000c5
:100fa400580032001e007800d60a07001e007800a0
:100fb4000000e80010407800e34040001e00780084
:100fc4000000e800014878001e0078008000eb0073
:100fd400a008b00001087800640047001000780001
:100fe4006a004000100078004900de00e140600023
:100ff4001e0078008180fb00e1806000c908dd00ec
:101004006a014000120178000290a1008280700001
:101014006a0040000108780064004700100078006e
:10102400ec00400091007800c808de006e0040002b
:1010340010017800f00f2000000061004800dd007e
:1010440000807000800078001e007800f20f2000fd
:10105400028160004811dd00ee01400013027800b7
:10106400f30f200083016200830171006e014000d0
:10107400030978004809de00f10f200081006100b7
:10108400700140009201780002f02f00028161009b
:101094008280700070004000010878001e00780013
:1010a4002008b000900078000e80e8000108780065
:1010b4000e80e800900078000040eb008048780043
:1010c400e1802000914078000e80e8001000780054
:1010d4000080e800014878006400470010007800b0
:1010e4006c004000904078000e80e800100078000a
:1010f4000000e800014878001e0078001c03070087
:1011040001003700000000000080fa000000060023
:101114000200fa00004f78001e417800e1802000b0
:10112400824878000080fa00000006000400fa00fb
:101134008e80e800800878000040eb00004f7800c3
:101144008040eb000e00e8000148780021003700e1
:101154000e00e800104078000080fb006600b90033
:1011640000007800e400400000b52000008040004a
:10117400104078000004e000110032000e00e80086
:10118400104078000081fb006610b9000000780070
:10119400e400400000b520000080400010407800ca
:1011a4008041e9006610b9008000780040b5200055
:1011b400008040000348780010c0b300004f78005e
:1011c4000e00e800104078008040e8000e00e800bf
:1011d400014878000e00e80010407800e94f500004
:1011e400dbff36001e4078000004e00003003200fc
:1011f4000e80e80010007800b20807000080fa00b2
:10120400000006000a00fa00e800470080087800a1
:101214000000eb00000f78008040eb000e80e80037
:1012240001487800800037000e80e8001040780004
:101234000080fb006600b9008000780000b5200043
:101244008080400064004700010878006400470083
:101254001000780064004000104078000004e000b2
:10126400640032006800470010007800eb00400082
:10127400914078008180fb006c00400010407800b1
:101284000080fb004800dd0000807000e40047009f
:101294009100780091007800810f500055003a00c9
:1012a40064004700100078000080e8009040780057
:1012b40068004700100078006a0040001040780081
:1012c40080c050006600470001487800660047006f
:1012d40010407800e74f500022003e0064004700b1
:1012e4001000780063004000104078008080fb000c
:1012f40066004700104078000080fb000088de0094
:1013040061006000004078000004e0000200320048
:1013140010c0b3006c003700640047001000780070
:101324006300400010407800804078006600470069
:10133400104078000080fb00120020000010dd0047
:101344000040780000c070008040780064004700ce
:101354001000780063004000014878000040eb0072
:101364005900370066004700104078008040ea00ca
:1013740067004700014878006800470010007800c3
:101384006a00400090407800640047001000780034
:101394000080e800014878006400470010007800ed
:1013a40063004000104078008080fb006700470025
:1013b400104078000080fb000008dd000040780049
:1013c4000004a0008040780064004700100078000a
:1013d4006300400001487800640047001000780072
:1013e400b1c0b30064004000014878000040eb0045
:1013f40035003700640047001000780064004000a6
:10140400104078000004e00002003a006400470045
:10141400100f78000e80e800104078008040e8004b
:101424000e80e800014878000e80e8001040780043
:10143400e94f50007cff36001e0078000000e000f9
:1014440002003a0010c0b3001f00370068004700d4
:1014540010007800eb004000914078008180fb0090
:101464006c004000104078000080fb004800dd0064
:1014740000807000800078001e0078000108780069
:1014840068004700100078006a004000904078002f
:101494001e0078000080e800014878001e007800f3
:1014a40011c0b30063004000014878001e007800ba
:1014b400b1c0b3006400400001487800c0b8200007
:1014c400000807000040eb000080fa00000006005e
:1014d4000200fa00000f78001e0078006a00400045
:1014e400104078000004e00002003a000040eb00e5
:1014f4000b0037001e0078006800400010007800e0
:10150400104078000080fb000000e00003003a0077
:101514001e00780045030700010037000040eb007f
:101524000080fa00000006000400fa008e80e80043
:10153400800878000e80e80010007800008fe80032
:101544000e80e8009000780040c2b3008048780024
:101554001e0078006900400010407800624060007e
:101564000004e0008a003a001e0078006900400090
:1015740010407800684060000004e00086003a00f3
:101584001e007800e3004000914078008180fb0059
:1015940064004000104078000080fb004800dd003b
:1015a40000807000e10f40001c003a00d25c800013
:1015b4001e007800ed004000914078008180fb001f
:1015c4006e004000104078000080fb004800dd0001
:1015d40000807000800f51000b0032001e00780064
:1015e400ed004000914078008180fb006e004000d7
:1015f400104078000080fb004800dd00008070008f
:10160400e10f400066003a000e80e8009000780088
:1016140020c2b30080487800680037001e007800bc
:10162400ed004000914078008180fb006e00400096
:10163400104078000080fb004800dd00008070004e
:10164400e10f400006003a001e00780069004000e7
:1016540010407800614060000004e00052003a004d
:10166400d25c80001e007800eb00400091407800be
:101674008180fb006c004000104078000080fb007b
:101684004800dd0000807000800f510048003200e7
:101694001e007800dbfe07000004e00046003a006c
:1016a4001e007800e5004000914078008180fb0036
:1016b40066004000104078000080fb004800dd0018
:1016c40000807000e10f400015003a00d25c8000f9
:1016d4001e007800ed004000914078008180fb00fe
:1016e4006e004000104078000080fb004800dd00e0
:1016f40000807000800f5100090032001e00780045
:101704006900400010407800644060000004e0007c
:1017140003003a000e80e80010007800420207003f
:10172400d25c80001e007800ed00400091407800fb
:101734008180fb006e004000104078000080fb00b8
:101744004800dd0000807000800f51000b00320063
:101754001e007800ed004000914078008180fb007d
:101764006e004000104078000080fb004800dd005f
:1017740000807000e10f400010003a000e80e80085
:101784009000780020c2b300804878000b00370036
:1017940000000000090037000000000007003700c7
:1017a40000000000050037000000000003003700bf
:1017b4000000000001003700000000000080fa0073
:1017c400000006001200fa00f000470080087800cc
:1017d4007000470010007800008fe8001e007800b9
:1017e4006f004000104078000080fb004400de00e1
:1017f400004078000080fb0063004000800040004f
:10180400a0b9200000804000100078000000e00033
:1018140002003a000040eb00c70037001e007800c9
:10182400eb004000914078008180fb006c00400098
:10183400104078000080fb004800dd00008070004c
:10184400800078000e80e800010878001e0078000f
:10185400ed004000914078008180fb006e00400064
:10186400104078000080fb004800dd00008070001c
:101874008000780064004700010878001e007800aa
:101884006f004000104078006f4060008040780096
:1018940066004700014878001e0078006f00400091
:1018a400104078000080fb004400de000040780017
:1018b40080407800670047000148780070004700c6
:1018c400100078002008b000900078006a004700fb
:1018d4000108780070004700100078002cfd070014
:1018e400ec00470080487800700047001000780042
:1018f4004008b000904078006d004700014878002f
:1019040070004700100078005008b0009040780044
:101914006e004700014878001e007800690040000e
:1019240010407800e14060006800470001487800fa
:101934006800470010407800804078001e0078005e
:1019440069004000104078006240600000c07000f0
:10195400804078006800470001487800680047002c
:1019640010407800804078001e0078006900400034
:1019740010407800644060000004e000020032007f
:1019840000c2b300010037000040eb0000c070004b
:1019940080407800680047000148780068004700ec
:1019a40010407800804078001e00780069004000f4
:1019b40010407800684060000004e000020032003b
:1019c40000c4b300010037000040eb0000c0700009
:1019d40080407800680047000148780068004700ac
:1019e40010407800804078001e0078006d014000af
:1019f400124178000281fb006e0040001040780024
:101a04000080fb004800dd0000007100e10f400091
:101a140002003a0040c0b300010037000040eb0070
:101a240000c07000804078006800470001487800da
:101a34006800470010407800804078001e0078005d
:101a44006b014000124178000281fb006c004000f1
:101a5400104078000080fb004800dd0000007100a9
:101a6400000178001e007800e701400093417800ef
:101a74008381fb0068004000104078000080fb0078
:101a84004800dd0000807100800f510002003a0020
:101a940080c0b300010037000040eb0000c07000bc
:101aa40080407800680047000148780068004700db
:101ab40010407800804078001e00780063014000e8
:101ac400124178000281fb0064004000104078005d
:101ad4000080fb004800dd0000007100e10f4000c1
:101ae40002003a0000c1b300010037000040eb00df
:101af40000c070008040780068004700014878000a
:101b04001e0078006f004000104078000080fb0049
:101b14004400de00004078000080fb0063004000c9
:101b240080004000a0b920000080400090007800b0
:101b34000e80e800010001000080fa0000000600a9
:101b44000400fa008e80e800800878000e68ef0038
:101b54000e80e800100078001aff0700004f78009c
:101b64000e80e800100078006a00400090007800c1
:101b740000102000008060000000e00002003a0035
:101b84000040eb00004f78000e80e8001000780061
:101b9400e600400091007800c808de0068004000bc
:101ba40010017800f00f2000000061004800dd0003
:101bb40000807000e10f400018003a00d25c800001
:101bc4000e80e80010007800ee00400091007800dc
:101bd400c808de007000400090017800f00f20007b
:101be400008061004800dd0000807000800f51001b
:101bf4000a003a000e80e800100078006a004000f5
:101c04009000780000802000008060000000e00068
:101c140002003a0010c0b300004f78000e80e800c4
:101c240010007800e400400091007800c808de004d
:101c34006600400010017800f00f200000006100f1
:101c44004800dd0000807000e10f400002003a000f
:101c54000040eb00004f7800d05c8000e10f4000b2
:101c640002003a000040eb00004f78001e4078006c
:101c74000004e000030032000e80e8001000780049
:101c8400c0fc07000e80e8009000780040c2b3005a
:101c9400804878000080fa00000006000200fa0084
:101ca4000000eb00000f7800150037001e007800dc
:101cb400104078000080fb0021022000810f5000ba
:101cc4000900320041022000810f50000900320057
:101cd40001022000810f500009003a001e00780024
:101ce40011fe0700060037001e00780094ff07006d
:101cf400030037001e0078005e07070000000000a4
:101d04001e00780065070700000f78001e007800a9
:101d14000000e000e5ff3a000080fa000000060041
:101d24000000fa001028ef0020032000010020002a
:101d3400505f8800615f88000000eb00705f8800de
:101d440020182100805f8800a000200001002000ee
:101d5400c05f8800d15f88000000eb00e05f88006e
:101d6400801f2100f05f88000080fa000000060058
:101d74000400fa008e80e800800878000e80e800f5
:101d840010007800008fe8000e80e8001000780052
:101d94008008b000104078000080fb006200600002
:101da4000000e000050032000e80e800900078009a
:101db40020c1b30080487800040037000e80e8009a
:101dc4009000780020c1b300804878000e80e800bd
:101dd400100078008040eb004008b0000148780013
:101de4000e80e800100078008008b00010407800f1
:101df4000080fb0061006000004078000004e00007
:101e04000e0032001e007800e3004000114178000b
:101e140080c0eb0001417100e3004000824878007b
:101e2400e40040001141780080c0eb008140710063
:101e3400640040000148780011003700e15c800034
:101e44001e007800f20f200002816000e3014000d0
:101e540093417800e0c1610082c1710063014000d8
:101e640003497800c808de0064014000124178008c
:101e740060416100814071006400400001487800c5
:101e84001e007800ed004000914078008180fb0046
:101e94006e004000104078000080fb004800dd0028
:101ea40000807000800078001e007800f20f20008f
:101eb40002816000e501400093417800e0c16100c7
:101ec40082c171006501400003497800c808de0042
:101ed4006601400012417800604161008140710058
:101ee4006600400001487800d15c80001e00780044
:101ef400f20f200002816000e70140009341780066
:101f0400e0c1610082c171006701400003497800ab
:101f1400c808de0068014000124178006041610099
:101f2400814071006800400001487800f0b9200049
:101f3400104078008040e800f0b9200001487800a3
:101f4400f0b92000904078001e0078000080e8007e
:101f5400014878001e007800e500400091407800b8
:101f64008180fb0066004000104078000080fb0088
:101f74004800dd0000807000e10f400016003a00c8
:101f84001e0078009040780060c1600011c4b30066
:101f940081407100014878008000e8009140780099
:101fa40060c1600081c8b300814071000000e80096
:101fb4000148780058fb0700670060000000e80053
:101fc400800078000e80e800100078006008b000ff
:101fd40001087800120037001e0078009040780055
:101fe40060c1600011c6b3008140710001487800ef
:101ff4008000e8009140780060c1600081c8b300af
:10200400814071000000e800014878000e80e8007b
:10201400100078008000eb006008b0000108780030
:102024000080fa00000006000400fa008e80e80038
:102034008008780051060700000f78001e00780021
:102044000000e000760032009e00780020c1b3005a
:10205400804878000e80e800100078000000e80056
:10206400904078001e0078000000e80001487800e5
:102074001e0078008040eb004008b0000148780062
:1020840025fb0700670060000000e800800078007e
:102094001e0078006008b000010878001e00780077
:1020a4008000eb00a008b000010878000e80e80072
:1020b400100078000000e800104078000081fb0068
:1020c4000e80e800100078008080e8001e80e800a0
:1020d400a2fa07001e007800118428000080e8009e
:1020e400010878001e007800e60040001101780025
:1020f40001f02f0002817000e600400082087800a1
:10210400e800400011017800f10f20008280700087
:1021140068004000010878000e80e8001000780094
:10212400e400400091007800c808de00660040002a
:1021340010017800f00f2000000061004800dd006d
:1021440000807000800078001e007800f20f2000ec
:10215400028160004811dd00e401400013027800b0
:10216400f30f2000830162008301710064014000c9
:10217400030978004809de00f10f200081006100a6
:10218400660140009201780002f02f000281610094
:10219400828070006600400001087800d15c8000f5
:1021a4001e007800f20f2000028160004811dd005b
:1021b400e801400013027800f30f2000830162005d
:1021c4008301710068014000030978004809de00ba
:1021d400f10f2000810061006a0140009201780043
:1021e40002f02f0002816100828070006a004000ca
:1021f40001087800f0b92000104078008040e80021
:10220400f0b9200001487800f0b92000904078002f
:102214001e00780064004000014878000100370087
:10222400000000000080fa00000006000600fa002a
:10223400e40047008008780064004700100078003c
:1022440068004000900078000e80e80001087800e3
:102254000000eb00000f78006400470010007800d5
:102264006a00400010407800e34f50001b00320029
:102274000040eb00200037001e007800104078007a
:10228400f64f500015003a001e0078006c00400024
:10229400904078000e80e800100078000000e8000c
:1022a4001040780080cf50000c003a009e00780067
:1022b40070c1b300804878000e80e80010007800f8
:1022c4000080e800904078001e0078008008b0008c
:1022d4000148780010c0b300070037001e007800e2
:1022e400ee050700000f78001e0078000000e000f3
:1022f400e1ff3a000040eb000080fa000000060015
:102304000600fa00e4004700800878000000eb00b3
:10231400000f78008040eb000e80e8000148780050
:10232400160037001e00780010407800f64f500069
:1023340012003a0011c0b3000e80e8000148780092
:102344001e0078006008b000100078008000e900ea
:102354001e0078006008b000010878001e007800b4
:102364006008b000100078000000e00003003a00ac
:1023740001c1b3001e0078000f0007001e007800a2
:10238400c6050700000f78001e0078000000e0007a
:10239400e4ff3a000e80e800104078000004e000fa
:1023a4000300320064004700100078004504070071
:1023b4000080fa00000006000400fa00000f780014
:1023c4000e80e800014878009e00780070c1b300d8
:1023d400804878001e0078004008b0008e80e80035
:1023e400114878000080fa00000006000600fa0098
:1023f400e4004700800878000000eb00000f78003c
:102404008040eb000e80e800014878001600370099
:102414001e00780010407800f14f500012003a007e
:1024240011c0b3000e80e800014878001e00780057
:102434006008b000100078008000e9001e007800f9
:102444006008b000010878001e0078006008b00041
:10245400100078000000e00003003a009e007800bd
:1024640030c1b300804878001e0078008b05070057
:10247400000f78001e0078000000e000e4ff3a003e
:102484000e80e800104078000004e00003003200f1
:1024940064004700100078000a0407000080fa0076
:1024a400000006000200fa00004f78001e80fb00c6
:1024b400e10f500006003200e20f50000600320027
:1024c4000000e00006003a000040eb000500370081
:1024d40000c2b3000300370010c2b300010037008c
:1024e40010c0b3000080fa00000006000200fa00e9
:1024f400881f7800004f7800884080001e407800d4
:10250400e8ff0700410820008880400080487800e8
:102514008140800050c1b300804878001028ef004b
:10252400005e80000000e900005e88004f0478002f
:102534000080fa00000006000200fa000000eb0030
:10254400000f7800710037001e00780010407800fa
:102554000080fb00f40f500067003200f40f5000bd
:1025640005003c00f20f50000a003200f30f500047
:102574001700320065003700f60f5000600032008b
:10258400f60f500023003500f70f50004c003200c6
:102594005e0037001e0078006008b000100078006c
:1025a4000000e000060032009e00780010c1b30075
:1025b4008048780020bf2000c20307005300370082
:1025c4009e00780030c1b300804878004f00370087
:1025d400804080000000e0004b003a009e0078003c
:1025e400814088009e00780040c1b3008048780094
:1025f4001e0078000000e800904078001e80e8008b
:10260400d1000700005e80000000e800005e880042
:102614003e0037001e0078004008b00010407800eb
:102624000004e00022003a001e007800ec004000a4
:1026340091007800c808de006e00400010017800a8
:10264400f00f2000000061004800dd0000807000f1
:10265400d15c8000810f500011003a001e00780008
:102664006a004000900078000010200000806000a4
:102674000000e0000a0032009e00780060c1b30050
:10268400804878001e007800510120006008b000e6
:102694000108780040be20008a0307001b003700b1
:1026a4009e00780070c1b30080487800170037009e
:1026b4009e00780070c1b300804878001300370092
:1026c4001e007800a008b000100078000000e000b0
:1026d40003003a001e007800e60407000b003700f0
:1026e4001e007800a008b000900078001e0078005a
:1026f400010001000500370000000000030037005e
:102704000000000001003700000000001e007800f7
:10271400e2040700000f78001e0078000000e000cb
:1027240089ff3a000080fa00000006000000fa0069
:102734009f0507000268ef000468ef00c0c0b30003
:10274400d4000700f043b20005e8b70010002000f1
:102754000040880081c0b30020c0b300a800070077
:1027640080c0b300f4000700a01780000070a00030
:10277400a017880011c4b30050c0b300a000070024
:10278400e1c2b30040c0b3009d00070001c8b3001c
:10279400c0c0b3009a0007000080fa0000000600e1
:1027a4000200fa00004f78001e41780021802000ca
:1027b400824878000f0107000080fa00000006003c
:1027c4000200fa00004f78001e417800318020009a
:1027d40082487800e60007000080fa000000060046
:1027e4000200fa00004f78001e417800418020006a
:1027f40082487800de0007000080fa00000006002e
:102804000200fa00004f78001e4178005180200039
:1028140082487800d60007000080fa000000060015
:102824000400fa008e80e800800878000e8fe8002b
:102834001e007800104078008040780020c2b30069
:102844006f0007001e00e800104078008040780008
:1028540030c2b3006a0007000080fa0000000600de
:102864000400fa008e80e800800878000e8fe800eb
:102874001e007800104078008040780000c2b30049
:102884005f0007001e00e8001040780080407800d8
:1028940010c2b3005a0007001e0078009040780070
:1028a4001e00e8001040780000c04000804078001e
:1028b400d0c2b300520007000080fa0000000600f6
:1028c4000400fa008e80e8008048780050c0b3000d
:1028d4007000070001cfb300014f60000e80e800d4
:1028e400104078001e4070008040780050c0b30053
:1028f400430007000080fa00000006000000fa0010
:1029040080c0b300c70007006016800000b0a000bc
:102914006016880020002000004088000080fa0033
:10292400000006000000fa006016800000b0a1005c
:1029340060168800af0007001000200000408800e7
:102944000080fa00000006000600fa000e81e8008c
:1029540000097800640047000148780090c1b30082
:10296400b0000700f0c0b3004a0007006017800001
:102974000000a1006017880000c6b30089040700a6
:10298400640047001040780000c0e8008504070098
:102994000040eb00004f7800070037001e80fb006a
:1029a4008e80e8009100780000804000104078009c
:1029b4007c0407001e4fe8006400470010407800c4
:1029c4009e40780080cf5000f4ff390060178000eb
:1029d4000000a0006017880030002000004088003c
:1029e4006016800000b0a0006016880060168000a9
:1029f40000b0a100601688000080fa000000060004
:102a04000400fa000e81e8000049780063004700e2
:102a140001487800601780000000a100601788005a
:102a24000e80e8009040780000ccb30000c0700035
:102a3400004f78001e80fb004013880000138000c4
:102a4400610060000000e000fcff320040138000e1
:102a54000e00e800e3004700114878000e00e8008b
:102a6400104078000080fb004013880000138000b1
:102a7400610060000000e000fcff320040138000b1
:102a8400601780000000a000601788000080fa0032
:102a9400000006000600fa00e400470080487800c1
:102aa400601780000000a1006017880064004700e0
:102ab40010407800804078000174a0000e00e80007
:102ac400014878000e00e800104078000080fb0008
:102ad4004013880000138000610060000000e000e3
:102ae400fcff3200401380008040eb000e80e800c1
:102af400014878000e80e800104078000080fb0058
:102b04004013880000138000610060000000e000b2
:102b1400fcff32004013800000407800004f780032
:102b2400601780000000a000601788001e40780035
:102b34000080fa00000006000200fa00881f7800f6
:102b4400004f7800000000001e84fb0010c0b3009a
:102b5400d0ff07000080fb007f006000800f54005e
:102b6400f9ff3a004f0478000080fa0000000600e4
:102b74000200fa00c0c0b300c6ff070001ccb300d6
:102b8400014f600005c8bf001e40700080407800ff
:102b9400c0c0b3009aff070004c8bf00804078009b
:102ba40040c1b30096ff070004c8bf000004e00062
:102bb4000a003a0080c0b300b6ff070001ceb3009c
:102bc400014f600003c8bf001e40700080407800c1
:102bd40080c0b3008aff07000400370003c8bf00a9
:102be4008040780030c1b30085ff07000080fa0000
:102bf400000006000000fa0080c0b30009000700ce
:102c0400f0c0b300a3ff070002c8bf000004e00047
:102c14000200320060c1b300020007000080fa0025
:102c2400000006000200fa00004f780031c0b30033
:102c340020c0b30072ff070080c0b300beff0700ce
:102c44009e40780020c0b3006dff07001e4078004e
:102c5400b9ff07000080fa00000006000400fa0033
:102c640005c8bf000080fb006800600000f0a700fa
:102c74000000ea000000ea004f00de00004f780088
:102c840005c8bf000080fb006400600000f0a700de
:102c94000000ea000000ea00cf00de000e00e800b9
:102ca4000148780005c8bf000080fb007000600088
:102cb40000f0a7000000ea000000ea00cf00de00f8
:102cc4000e80e800014878001e4078000004a2004d
:102cd4000004e000090032000e00e8001040780013
:102ce4000004a2000004e00002003200c0c9b300e6
:102cf40011003700d0c9b3000f0037000e00e80000
:102d0400104078000004a2000004e0000200320039
:102d1400e0c9b300080037000e80e80010407800d6
:102d24000004a2000004e00002003200f0c9b30075
:102d340001003700f0c9b3000080fa00000006006b
:102d44000a00fa00881f780000408000e20f50005b
:102d540072003200f0c0b3004eff07000080fb0099
:102d6400680060000000e0006d0032000040800058
:102d7400e10f50003e003a0070c0b30045ff070069
:102d84008e80e80080487800601780000000a10071
:102d94006017880000c2b300820307000040eb0004
:102da40080030700e3004700804878000040eb0000
:102db400004f7800070037001e84fb000040eb0042
:102dc4007803070001ad2000888040008048780027
:102dd4001e4fe8009e80fb0063004700104078000f
:102de4000080fb000000e800808f5000f2ff3500f7
:102df400601780000000a0006017880001ad20006b
:102e04006400470001087800630047001040780020
:102e140080c0e9006600470001487800630047006d
:102e2400104078000080fb0001ad200000804000cd
:102e340090407800670047000148780087ff07004a
:102e4400804078000e80e8001040780000c0400008
:102e5400804078006800470001487800640047001b
:102e6400f6f7070060c1b30033ff07002c003700fa
:102e740000408000e30f500029003a0020c0b30056
:102e840004ff07000080fb00c500de000e00e80020
:102e9400014878000e00e800104078000004e000cb
:102ea40004003a008040eb000e00e800014878007e
:102eb400130037000e00e80010407800e34f500084
:102ec40004003a0011c0b3000e00e8000148780085
:102ed4000b0037000e00e80010407800e54f50006a
:102ee40004003a0021c0b3000e00e8000148780055
:102ef4000300370031c0b3000e00e8000148780039
:102f04003cff070010002000004088000e00e8008d
:102f14001040780075fd0700010037000000000034
:102f24004f0478000080fa00000006000000fa0058
:102f34000c28ef000080fa00000006000200fa00ee
:102f4400000f78001e0078008040eb006400400011
:102f5400014878001e0078008040eb0072004000b9
:102f6400014878001e0078008000eb000080e80033
:102f740001087800005e80000000e800005e880020
:102f8400604080000000e00006003a001e00780067
:102f94008000eb00010878009e0078006140880002
:102fa40005003700614080001e00780001087800a9
:102fb4009e007800614088000080fa00000006004e
:102fc4000400fa008e80e800800878006b02070095
:102fd400000f78001e0078000000e0000b003a00ab
:102fe4000e80e8001000780021c0b30064004000a7
:102ff400014878000e80e8001000780021c0b3007a
:103004007200400001487800b50037000e80e800e7
:10301400100078000080e8001e0878000e80e800a8
:103024001000780011c0b30064004000014878002b
:103034001e00780061972100a008b0000108780004
:103044000e80e800100078006a004000104078000c
:103054000080fb006400600000f0a7000000ea00ac
:103064000000ea004f00de00804078001e00780077
:103074008008b000014878000e80e8001000780055
:103084006a004000104078006140600061406000c8
:10309400614060009e0078000080fb0061006000d9
:1030a4004800dd006a814000120178000280a1001e
:1030b400020170006a804000020878000e80e80077
:1030c400100078006a004000104078000080fb0087
:1030d4006800600000f0a7000000ea000000ea00b9
:1030e4004f00de00804078001e0078008180fb00e5
:1030f400e1806000ca08dd006a0140001201780026
:1031040002a0a100828070006a00400001087800db
:10311400e0b92000104078008040e800e0b92000c9
:1031240001487800e0b92000904078001e00780043
:103134006c00400001487800d15c80001e007800db
:10314400f20f2000028160004811dd00ec01400014
:1031540013027800f30f20008301620083017100e1
:103164006c014000030978004809de00f10f2000db
:10317400810061006e0140009201780002f02f008e
:1031840002816100828070006e00400001087800b6
:103194000e80e8001000780066004000900078007f
:1031a4001e007800f20f2000028160004811dd004b
:1031b400ee01400013027800f30f20008301620047
:1031c400830171006e014000030978004809de00a4
:1031d400f10f20008100610070014000920178002d
:1031e40002f02f00028161008280700070004000b4
:1031f400010878000e80e8001000780069004000a3
:1032040010407800ef4060001e0078008180fb00d1
:10321400ef806000c808dd00700140009201780072
:10322400f20f2f0002816100828070007000400064
:10323400010878000e80e800100078006800400063
:1032440010407800ef4060001e0078008180fb0091
:10325400cc08dd007001400092017800f2ff2000ec
:1032640002816100828070007000400001087800d3
:103274000e80e800100078006e00400010407800d6
:103284000080fb008e80e80091007800ec80400014
:10329400910078001e0178002208b00092017800a5
:1032a40000017800030078002cf607001e00780067
:1032b4000000e800904078000e80e80010007800dc
:1032c4006e0040001040780080c040001e0078006e
:1032d4000000e800014878001e007800a4fa070006
:1032e4000080fa00000006000400fa008e80e80066
:1032f4008008780061408000010f78001d003700cd
:103304001e0078000080e800900078000e80e8003d
:1033140010007800808f500013003a000e80e800ff
:10332400100078004008b000904078001e0078003b
:1033340072004000014878000e80e8001000780018
:103344008008b000904078001e00780073004000b0
:10335400014878001e00780021c0b30064004000da
:1033640001487800060037001e007800100078003d
:10337400000f78001e0078000000e000e0ff3a0033
:103384000e80e80010007800ba0107000080fa00ff
:10339400000006000400fa008e80e800800878002f
:1033a400614080000e80e80010007800808f50009b
:1033b40004003a00604080001000780060408800fb
:1033c4001100370061408000010f780003003700ce
:1033d4001e00780010007800000f78001e007800ae
:1033e400900078000e80e80010007800808f500074
:1033f400f7ff3a001e007800100078009000780073
:103404001e00780001087800005e80000000e900da
:10341400005e88000e80e800100078007000400014
:10342400900078000e80e800100078000100010090
:103434000080fa00000006000200fa0061408000eb
:10344400010f7800160037001e0078006400400069
:10345400104078000080fb00e10f50000a003200a9
:10346400e20f5000050032000000e00008003a00be
:103474001e007800d2fe07000c0037001e00780002
:10348400c4ff0700090037000000000001003700f6
:10349400000000001e00780010007800000f780083
:1034a4001e0078000000e000e7ff3a000080fa0008
:1034b400000006000000fa001228ef000080fa0065
:1034c400000006000200fa00000f78001e007800d9
:1034d400470007000004a2000004e00002003200dc
:1034e4001e007800ac0007000080fa00000006000f
:1034f4000600fa00e4004700800878000000eb00b2
:10350400000f78000e80e8009140800001087800e8
:103514002f0037000e80e800900078006400470018
:1035240010007800808f500023003a001e007800bd
:103534000000e000060032000e80e8001000780071
:10354400900078001e00780001087800040037001d
:103554000e80e80010007800100078009040880089
:103564000e80e80010007800100078000000e000f1
:103574001c0032000e80e800100078001002780071
:103584000e80e80010007800100078000080e80049
:103594001001be0064004700100078000080e800bd
:1035a4001000be0002004000838048000481e8004f
:1035b4000089be000c0037000e80e800100f780070
:1035c4000e80e800900078000e80e8001108780072
:1035d4000e80e800100078000000e000cdff3a0003
:1035e40001003700000000000080fa00000006001f
:1035f4000400fa008e80e800800878009140800082
:10360400010f7800090037000e80e80010007800f0
:103614009e007800808f500002003a0010c0b30072
:10362400060037001e007800100f78001e00780096
:103634000000e000f4ff3a000040eb000080fa00d4
:10364400000006000800fa000ac8bf000004e000f9
:103654004e00320011028000000e200001007000b4
:103664001002880064004700a18020009140780087
:10367400014878000a68ef0011028000f0f12f0081
:103684000080600010028800640047001040780049
:103694000080fb008000eb006a09b9000201780099
:1036a4006002b9008401780003014100a3002000f6
:1036b4000300b8000101410082007800008fbe00c1
:1036c400008fbe001b003700660047009440800056
:1036d40004087800904080000080e8001000be00dc
:1036e4001e1f10001e9718009040800010007800e4
:1036f4009040880066004700100078006a0040008f
:1037040010007800e10f500003003a006600470003
:1037140010007800200007006600470010007800c1
:103724006c004000900078006600470010007800ac
:1037340001000100904080000000e000060032001b
:10374400904080000080e8001000be00be0f5000d2
:10375400ae8f5800dcff3600904080000000e0008f
:103764000b00320092408000904080000080e8000e
:103774001000be003e025000ae8258000400be009d
:103784000281e8000089be0001003700000000004b
:103794000080fa00000006000a00fa00e800470072
:1037a40080087800904080000000e0005000320063
:1037b4000000eb00000f78006800470090007800dc
:1037c4000e80e800e680400031187800211078006f
:1037d4006600470091408000010878002600370009
:1037e40066004700100078000080e8001001be0069
:1037f4000e80e8001000be00800f5100818f590038
:103804000d00360066004700100078000080e800d4
:103814001001be000e80e8001000be000000510040
:103824008180590066014700120178000281e80096
:103834000089be00140037006600470010007800bd
:103844000080e8001000be000e81e8001201be00f6
:1038540000005100818059000e81e8000089be00fb
:1038640066004700100f780066004700900078005b
:1038740066004700110878006600470010007800d1
:103884000000e000d6ff3a0068004700100078000e
:103894000080e8008e80e80031187800211078005c
:1038a4001e0078000000e000090032001e007800cd
:1038b4009000780068004700100078000108780044
:1038c4009e007800680047009008780017003700d1
:1038d40091408000680047001000780001087800db
:1038e4006800470090007800914088000f0037007e
:1038f40068004700100078008000eb0001087800a1
:103904006800470010007800660040001000be0008
:1039140068014700120178000281e8000089be00b6
:103924006800470090007800914088000080fa0009
:10393400000006000200fa000040eb00004f78008f
:10394400090037009e80fb00c00820000088b900f1
:103954008000780040812000008040008040eb001f
:10396400014878001e4fe8001e407800e44f5000e4
:10397400f4ff36000080fa00000006000200fa009e
:103984000040eb00004f7800340037009e80fb00bd
:10399400c00820000088b900800078004081200021
:1039a40000804000104078000004e0002a003a0043
:1039b4009e80fb00c00820000088b90080007800c9
:1039c4004081200000804000c20820008000eb00fd
:1039d40069f407009e80fb00c00820000088b9003d
:1039e40080007800408120000080400001c1b300c5
:1039f4000000e800014878001e81fb009e80fb0067
:103a0400c00820000088b90000007800f2004000df
:103a14004081200080814000c00820000090b9004f
:103a2400800078006089200000804000030878004e
:103a3400005e80000000e800005e88009e80fb00bd
:103a4400c00820000088b900800078004081200070
:103a540000804000050037001e4fe8001e4078003b
:103a6400e44f5000c9ff36000000eb000080fa006c
:103a7400000006000200fa00000f78009e007800a3
:103a84000040eb0080487800005e80000000e90000
:103a9400005e88000080fa00000006000200fa00c0
:103aa400000f78001e0078000000e00003003a00d8
:103ab40040812000000f78000b003700c10820006f
:103ac4001e8f4000080037001e0078001040780068
:103ad4000004e000020032001e00780007003700f6
:103ae400c10820001e8f400000ad20009e00780019
:103af400808f5000f4ff39000000eb000080fa00d2
:103b0400000006000200fa00000f78001e00780092
:103b14008040eb004008b00001487800e0b9200084
:103b2400104078008040e800e0b9200001487800a7
:103b3400e0b92000904078001e0078006c0040003e
:103b440001487800d15c80001e007800f20f20004c
:103b5400028160004811dd00ec014000130278008e
:103b6400f30f200083016200830171006c014000a7
:103b7400030978004809de00f10f2000810061008c
:103b84006e0140009201780002f02f000281610072
:103b9400828070006e004000010878000080fa0006
:103ba400000006000400fa008e80e80080487800d7
:103bb4000e80e800104f78001e80fb004013880040
:103bc40000138000610060000000e000fcff320090
:103bd40040138000004078000080fa0000000600d6
:103be4000000fa00801780000060a10080178800a0
:103bf400801780000070a100801788008017800063
:103c04000080a10080178800801780000090a10028
:103c140080178800c01680000010a100c01688001c
:103c2400401780000040a100401788004017800022
:103c34000050a10040178800801680000010a000ea
:103c440080168800801680000030a000801688004e
:103c5400001780000080a000001788000017800073
:103c64000090a000001788004016800000b0a1005a
:103c7400401688006016800000b0a100601688001d
:103c8400c016800000d0a100c0168800c0168000b5
:103c940000c0a000c0168800401780000000a100ea
:103ca40040178800401780000020a00040178800bb
:103cb400401780000030a1004017880040178000a2
:103cc4000080a1004017880011028000000e20002f
:103cd4000100700010028800113a8000f00b2000ef
:103ce400008160006004200071052000237420001e
:103cf40080497800814978008249780061358000e4
:103d040000fc2f0000806000e001b30060358800f3
:103d14008136800000fc2f0000806000a000b3000a
:103d24008036880071368000f00f2c00808060009f
:103d340000b020000100700070368800103a800046
:103d4400000178000260a0006004200071052000da
:103d540023742000804978008149780082497800e2
:103d640011028000f0f12f00008060001002880032
:103d74006222ef006422ef0062a2a8001113800007
:103d8400c0ff2f00008060000000a0001013880016
:103d94001113800030fe2f00008060001013880093
:103da40060c2a90061e2a8000080fa0000000600d9
:103db4000000fa00e016800000d0a100e0168800a0
:103dc400a0c0b30048010700e016800000d0a000a6
:103dd400e01688000080fa00000006000200fa00e5
:103de400e0b920008040eb0001487800f0b92000e1
:103df4008040eb00014878000000eb00d05c8800b4
:103e04000000eb00005e88000040eb00004f7800eb
:103e1400080037001e80fb00630040008000400063
:103e2400a0b92000008040008000eb000108780069
:103e34001e4fe8001e407800ef4f5000f5ff36009b
:103e4400b7f70700e1f30700bafe070037fc0700e5
:103e54000080fa00000006000200fa00000f78005b
:103e64009e007800d15c88001e0078007cfa070070
:103e74000080fa00000006000200fa00000f78003b
:103e84009e007800e15c88001e00780064fa070058
:103e94000080fa00000006000400fa00004f7800d9
:103ea4000e80e800010878001e80fb0063004000db
:103eb40080004000a0b92000008040008e80e8000f
:103ec400110878000080fa00000006000000fa00e3
:103ed400005e800000f0a7000000ea000000ea0095
:103ee4004f00de00004078000080fa000000060069
:103ef4000000fa00005e80000000e800005e880018
:103f04000080fa00000006000000fa00005e800055
:103f14000000e900005e88000080fa00000006004e
:103f24000000fa0075fa07000080fa00000006009d
:103f34000000fa007bfa07000080fa000000060087
:103f44000e00fa00ec00470080487800e2004700c9
:103f5400026c280008000900b258780090c1b30030
:103f6400004f78008040eb000e00e8000148780024
:103f7400120037006c004700104078009e4f50003c
:103f8400070031000e00e800104078000080fb00bc
:103f9400000047000080e800104078000c00370063
:103fa4009e40780079cf40000e00e8001040780071
:103fb4008040e8000e00e800014878000e00e800a8
:103fc40010407800e84f5000eaff360000c0eb00d4
:103fd4000080fa00000006000000fa002ff7070036
:103fe40055f9070014fd07000080fa0000000600e0
:103ff4000200fa00000f7800a117800000042000de
:1040040000806800a01788000080fa000000060005
:104014000000fa0020002000b05e880090bd20005f
:1040240011c0b3000148780080bd200011c0b30066
:104034000148780030408000e05e88004040800005
:1040440080407800e0bd2000014878004003220051
:10405400005f880000bd2000b8fb07000080fa0064
:10406400000006000200fa00000f78001e0078002d
:1040740072004000104078000004e00007003a009d
:10408400601780000040a00060178800e0168000e0
:104094000010a100e01688000600370060178000b9
:1040a4000040a10060178800e01680000010a00006
:1040b400e0168800d6ff07000080fa000000060022
:1040c4000000fa00803e200001002000405e8800cd
:1040d400515e880010002000605e8800a0ff21006f
:1040e400705e880020bc2000f6fc07001000200051
:1040f40059ff0700d0ea2d005fff0700b0c0b300ee
:10410400aff907000040eb00edf9070010c0b30061
:10411400a3f90700beff07000080fa0000000600b4
:104124000000fa000080fa00000006000000fa0017
:1041340081000700e2ff070086000700f8ff070080
:04414400fdff370044
:020000040000fa
:104148000a08000002000000000000009a0b0000ae
:1041580028000000000000000c0800000200000019
:104168000000000014080000bc020000000000006d
:10417800500b00004a000000000000000e0800007c
:104188000200000000000000e40b00001c0000001a
:1041980000000000100800000200000000000000fd
:1041a800d00a0000800000000000000000080000a5
:1041b80006000000000000001208000002000000d5
:1041c80000000000c20b00002200000000000000f8
:1041d800060800000400000002000000b2860d007e
:1041e80000000000000c00000400000000000000b7
:0441f80000000000c3
:020000040000fa
:1041fc000000fa000a68ef000421ef00200880009c
:10420c000040a00020088800f0e12400100888007d
:10421c008460a90021058000f0ff28000080600068
:10422c0000e0a000200588009460a80005e1a8002b
:10423c000080fa00000006000200fa00000f78006f
:10424c001e0078008000eb006011b80004402200d2
:10425c00450f20006033b800f3f10700843e2000c6
:10426c00050020006033b80086f107000000be0096
:10427c00210007000080fa00000006000000fa0090
:10428c00213a8000f0f32f0000806000203a880073
:10429c0040a7a900213a8000f0f32f0000806000b5
:1042ac00203a88000100370000000000113a80001d
:1042bc0000022000008060000000e000faff3200e5
:1042cc0011028000f0f12f000080600010028800c5
:1042dc00c7ff070040fe07000080fa000000060040
:1042ec000200fa00004f78001e80fb00d2ff07008e
:0842fc000080fa00000006003a
:020000040000fa
:10430400f03fb1000180b10006003500ee03090062
:1043140000000000403fb1000180b100fbff3d0000
:104324001000b000203fb0000200350000800900fa
:0843340000000000000006007b
:020000040000fa
:10433c000000fa00d1ff07005cfc0700f9f8070049
:10434c00a4fe07000080fa00000006000000fa003e
:10435c0079fa07001eff0700b8fc07000080fa007e
:04436c000000060047
:020000040000fa
:020000040005f5
:0457f400ffff0000b3
:020000040000fa
:020000040005f5
:0457f800b6230000d4
:020000040000fa
:020000040005f5
:0457fc007f3e0000ec
:00000001FF
